{
  "contractName": "CharacterFactory",
  "abi": [
    {
      "constant": true,
      "inputs": [
        {
          "name": "",
          "type": "uint256"
        }
      ],
      "name": "characters",
      "outputs": [
        {
          "name": "name",
          "type": "string"
        },
        {
          "name": "dna",
          "type": "uint256"
        },
        {
          "name": "level",
          "type": "uint32"
        },
        {
          "name": "readyTime",
          "type": "uint32"
        },
        {
          "name": "winCount",
          "type": "uint16"
        },
        {
          "name": "lossCount",
          "type": "uint16"
        }
      ],
      "payable": false,
      "stateMutability": "view",
      "type": "function"
    },
    {
      "constant": true,
      "inputs": [],
      "name": "owner",
      "outputs": [
        {
          "name": "",
          "type": "address"
        }
      ],
      "payable": false,
      "stateMutability": "view",
      "type": "function"
    },
    {
      "constant": true,
      "inputs": [
        {
          "name": "",
          "type": "uint256"
        }
      ],
      "name": "charToOwner",
      "outputs": [
        {
          "name": "",
          "type": "address"
        }
      ],
      "payable": false,
      "stateMutability": "view",
      "type": "function"
    },
    {
      "constant": true,
      "inputs": [
        {
          "name": "",
          "type": "uint256"
        }
      ],
      "name": "chars",
      "outputs": [
        {
          "name": "name",
          "type": "string"
        },
        {
          "name": "dna",
          "type": "uint256"
        },
        {
          "name": "level",
          "type": "uint32"
        },
        {
          "name": "readyTime",
          "type": "uint32"
        },
        {
          "name": "winCount",
          "type": "uint16"
        },
        {
          "name": "lossCount",
          "type": "uint16"
        }
      ],
      "payable": false,
      "stateMutability": "view",
      "type": "function"
    },
    {
      "constant": false,
      "inputs": [
        {
          "name": "newOwner",
          "type": "address"
        }
      ],
      "name": "transferOwnership",
      "outputs": [],
      "payable": false,
      "stateMutability": "nonpayable",
      "type": "function"
    },
    {
      "anonymous": false,
      "inputs": [
        {
          "indexed": false,
          "name": "charId",
          "type": "uint256"
        },
        {
          "indexed": false,
          "name": "name",
          "type": "string"
        },
        {
          "indexed": false,
          "name": "dna",
          "type": "uint256"
        }
      ],
      "name": "NewCharacter",
      "type": "event"
    },
    {
      "anonymous": false,
      "inputs": [
        {
          "indexed": true,
          "name": "previousOwner",
          "type": "address"
        },
        {
          "indexed": true,
          "name": "newOwner",
          "type": "address"
        }
      ],
      "name": "OwnershipTransferred",
      "type": "event"
    },
    {
      "constant": false,
      "inputs": [
        {
          "name": "_name",
          "type": "string"
        }
      ],
      "name": "createRandomCharacter",
      "outputs": [
        {
          "name": "",
          "type": "uint256"
        }
      ],
      "payable": false,
      "stateMutability": "nonpayable",
      "type": "function"
    },
    {
      "constant": true,
      "inputs": [
        {
          "name": "_id",
          "type": "uint256"
        }
      ],
      "name": "getCharacter",
      "outputs": [
        {
          "name": "",
          "type": "string"
        }
      ],
      "payable": false,
      "stateMutability": "view",
      "type": "function"
    }
  ],
  "bytecode": "0x60606040526010600155600154600a0a60025562015180600355336000806101000a81548173ffffffffffffffffffffffffffffffffffffffff021916908373ffffffffffffffffffffffffffffffffffffffff160217905550610e69806100686000396000f300606060405260043610610083576000357c0100000000000000000000000000000000000000000000000000000000900463ffffffff1680633be5c296146100885780634810bc59146100f95780638da5cb5b146101fd5780638ea7fc2714610252578063dabb0531146102b5578063ea37209714610351578063f2fde38b14610455575b600080fd5b341561009357600080fd5b6100e3600480803590602001908201803590602001908080601f0160208091040260200160405190810160405280939291908181526020018383808284378201915050505050509190505061048e565b6040518082815260200191505060405180910390f35b341561010457600080fd5b61011a60048080359060200190919050506104bf565b60405180806020018781526020018663ffffffff1663ffffffff1681526020018563ffffffff1663ffffffff1681526020018461ffff1661ffff1681526020018361ffff1661ffff1681526020018281038252888181546001816001161561010002031660029004815260200191508054600181600116156101000203166002900480156101e95780601f106101be576101008083540402835291602001916101e9565b820191906000526020600020905b8154815290600101906020018083116101cc57829003601f168201915b505097505050505050505060405180910390f35b341561020857600080fd5b610210610545565b604051808273ffffffffffffffffffffffffffffffffffffffff1673ffffffffffffffffffffffffffffffffffffffff16815260200191505060405180910390f35b341561025d57600080fd5b610273600480803590602001909190505061056a565b604051808273ffffffffffffffffffffffffffffffffffffffff1673ffffffffffffffffffffffffffffffffffffffff16815260200191505060405180910390f35b34156102c057600080fd5b6102d6600480803590602001909190505061059d565b6040518080602001828103825283818151815260200191508051906020019080838360005b838110156103165780820151818401526020810190506102fb565b50505050905090810190601f1680156103435780820380516001836020036101000a031916815260200191505b509250505060405180910390f35b341561035c57600080fd5b610372600480803590602001909190505061065b565b60405180806020018781526020018663ffffffff1663ffffffff1681526020018563ffffffff1663ffffffff1681526020018461ffff1661ffff1681526020018361ffff1661ffff1681526020018281038252888181546001816001161561010002031660029004815260200191508054600181600116156101000203166002900480156104415780601f1061041657610100808354040283529160200191610441565b820191906000526020600020905b81548152906001019060200180831161042457829003601f168201915b505097505050505050505060405180910390f35b341561046057600080fd5b61048c600480803573ffffffffffffffffffffffffffffffffffffffff169060200190919050506106d2565b005b60008061049a83610827565b90506064818115156104a857fe5b06810390506104b783826108a9565b915050919050565b6004818154811015156104ce57fe5b906000526020600020906003020160009150905080600001908060010154908060020160009054906101000a900463ffffffff16908060020160049054906101000a900463ffffffff16908060020160089054906101000a900461ffff169080600201600a9054906101000a900461ffff16905086565b6000809054906101000a900473ffffffffffffffffffffffffffffffffffffffff1681565b60066020528060005260406000206000915054906101000a900473ffffffffffffffffffffffffffffffffffffffff1681565b6105a5610c16565b600560008381526020019081526020016000206000018054600181600116156101000203166002900480601f01602080910402602001604051908101604052809291908181526020018280546001816001161561010002031660029004801561064f5780601f106106245761010080835404028352916020019161064f565b820191906000526020600020905b81548152906001019060200180831161063257829003601f168201915b50505050509050919050565b600560205280600052604060002060009150905080600001908060010154908060020160009054906101000a900463ffffffff16908060020160049054906101000a900463ffffffff16908060020160089054906101000a900461ffff169080600201600a9054906101000a900461ffff16905086565b6000809054906101000a900473ffffffffffffffffffffffffffffffffffffffff1673ffffffffffffffffffffffffffffffffffffffff163373ffffffffffffffffffffffffffffffffffffffff1614151561072d57600080fd5b600073ffffffffffffffffffffffffffffffffffffffff168173ffffffffffffffffffffffffffffffffffffffff161415151561076957600080fd5b8073ffffffffffffffffffffffffffffffffffffffff166000809054906101000a900473ffffffffffffffffffffffffffffffffffffffff1673ffffffffffffffffffffffffffffffffffffffff167f8be0079c531659141344cd1fd0a4f28419497f9722a3daafe3b4186f6b6457e060405160405180910390a3806000806101000a81548173ffffffffffffffffffffffffffffffffffffffff021916908373ffffffffffffffffffffffffffffffffffffffff16021790555050565b600080826040518082805190602001908083835b602083101515610860578051825260208201915060208101905060208303925061083b565b6001836020036101000a0380198251168184511680821785525050505050509050019150506040518091039020600190049050600254818115156108a057fe5b06915050919050565b60006108b3610c2a565b600060c060405190810160405280868152602001858152602001600163ffffffff168152602001600354420163ffffffff168152602001600061ffff168152602001600061ffff1681525091506001600480548060010182816109169190610c7b565b916000526020600020906003020160008590919091506000820151816000019080519060200190610948929190610cad565b506020820151816001015560408201518160020160006101000a81548163ffffffff021916908363ffffffff16021790555060608201518160020160046101000a81548163ffffffff021916908363ffffffff16021790555060808201518160020160086101000a81548161ffff021916908361ffff16021790555060a082015181600201600a6101000a81548161ffff021916908361ffff1602179055505050039050336006600083815260200190815260200160002060006101000a81548173ffffffffffffffffffffffffffffffffffffffff021916908373ffffffffffffffffffffffffffffffffffffffff160217905550600760003373ffffffffffffffffffffffffffffffffffffffff1673ffffffffffffffffffffffffffffffffffffffff1681526020019081526020016000206000815480929190600101919050555081600560008381526020019081526020016000206000820151816000019080519060200190610abd929190610cad565b506020820151816001015560408201518160020160006101000a81548163ffffffff021916908363ffffffff16021790555060608201518160020160046101000a81548163ffffffff021916908363ffffffff16021790555060808201518160020160086101000a81548161ffff021916908361ffff16021790555060a082015181600201600a6101000a81548161ffff021916908361ffff1602179055509050507f160293841a4afd9a092b4537afec1a5f1d988d77dde74c501181812668fca4718186866040518084815260200180602001838152602001828103825284818151815260200191508051906020019080838360005b83811015610bcf578082015181840152602081019050610bb4565b50505050905090810190601f168015610bfc5780820380516001836020036101000a031916815260200191505b5094505050505060405180910390a1809250505092915050565b602060405190810160405280600081525090565b60c060405190810160405280610c3e610d2d565b815260200160008152602001600063ffffffff168152602001600063ffffffff168152602001600061ffff168152602001600061ffff1681525090565b815481835581811511610ca857600302816003028360005260206000209182019101610ca79190610d41565b5b505050565b828054600181600116156101000203166002900490600052602060002090601f016020900481019282601f10610cee57805160ff1916838001178555610d1c565b82800160010185558215610d1c579182015b82811115610d1b578251825591602001919060010190610d00565b5b509050610d299190610dd0565b5090565b602060405190810160405280600081525090565b610dcd91905b80821115610dc95760008082016000610d609190610df5565b60018201600090556002820160006101000a81549063ffffffff02191690556002820160046101000a81549063ffffffff02191690556002820160086101000a81549061ffff021916905560028201600a6101000a81549061ffff021916905550600301610d47565b5090565b90565b610df291905b80821115610dee576000816000905550600101610dd6565b5090565b90565b50805460018160011615610100020316600290046000825580601f10610e1b5750610e3a565b601f016020900490600052602060002090810190610e399190610dd0565b5b505600a165627a7a7230582066f399cf6af3778f69b002ad043d594b18b108d557d757431c8b43e64fe5f57b0029",
  "source": "pragma solidity ^0.4.19;\r\n\r\nimport \"./ownable.sol\";\r\n\r\ncontract CharacterFactory is Ownable {\r\n\r\n    event NewCharacter(uint charId, string name, uint dna);\r\n\r\n    uint dnaDigits = 16;\r\n    uint dnaModulus = 10 ** dnaDigits;\r\n    uint cooldownTime = 1 days;\r\n\r\n    struct Character {\r\n      string name;\r\n      uint dna;\r\n      uint32 level;\r\n      uint32 readyTime;\r\n      uint16 winCount;\r\n      uint16 lossCount;\r\n    }\r\n\r\n    Character[] public characters;\r\n\r\n    mapping (uint => Character) public chars;\r\n    mapping (uint => address) public charToOwner;\r\n    mapping (address => uint) ownerCharCount;\r\n\r\n    function _createCharacter(string _name, uint _dna) internal returns (uint) {\r\n        Character memory char = Character(_name, _dna, 1, uint32(now + cooldownTime), 0, 0);\r\n        uint id = characters.push(char) - 1;\r\n        charToOwner[id] = msg.sender;\r\n        ownerCharCount[msg.sender]++;\r\n        chars[id] = char;\r\n        NewCharacter(id, _name, _dna);\r\n\r\n        return id;\r\n    }\r\n\r\n    function _generateRandomDna(string _str) private view returns (uint) {\r\n        uint rand = uint(keccak256(_str));\r\n        return rand % dnaModulus;\r\n    }\r\n\r\n    function createRandomCharacter(string _name) public returns (uint) {\r\n        //require(ownerCharCount[msg.sender] == 0);\r\n        uint randDna = _generateRandomDna(_name);\r\n        randDna = randDna - randDna % 100;\r\n        return uint(_createCharacter(_name, randDna));\r\n    }\r\n\r\n    function getCharacter(uint _id) public view returns (string) {\r\n\r\n        return chars[_id].name;\r\n    }\r\n\r\n}\r\n",
  "sourcePath": "C:\\Users\\Jeremy\\dev\\cryptoduel\\contracts\\CharacterFactory.sol",
  "compiler": {
    "name": "solc",
    "version": "0.4.19+commit.c4cbbb05.Emscripten.clang"
  },
  "schemaVersion": "1.0.1",
  "updatedAt": "2018-02-12T01:26:12.307Z"
}