{
  "contractName": "CommitReveal",
  "abi": [
    {
      "constant": true,
      "inputs": [],
      "name": "votesForChoice2",
      "outputs": [
        {
          "name": "",
          "type": "uint256"
        }
      ],
      "payable": false,
      "stateMutability": "view",
      "type": "function"
    },
    {
      "constant": true,
      "inputs": [],
      "name": "numberOfVotesCast",
      "outputs": [
        {
          "name": "",
          "type": "uint256"
        }
      ],
      "payable": false,
      "stateMutability": "view",
      "type": "function"
    },
    {
      "constant": true,
      "inputs": [],
      "name": "choice1",
      "outputs": [
        {
          "name": "",
          "type": "string"
        }
      ],
      "payable": false,
      "stateMutability": "view",
      "type": "function"
    },
    {
      "constant": true,
      "inputs": [],
      "name": "choice2",
      "outputs": [
        {
          "name": "",
          "type": "string"
        }
      ],
      "payable": false,
      "stateMutability": "view",
      "type": "function"
    },
    {
      "constant": true,
      "inputs": [],
      "name": "commitPhaseEndTime",
      "outputs": [
        {
          "name": "",
          "type": "uint256"
        }
      ],
      "payable": false,
      "stateMutability": "view",
      "type": "function"
    },
    {
      "constant": true,
      "inputs": [],
      "name": "votesForChoice1",
      "outputs": [
        {
          "name": "",
          "type": "uint256"
        }
      ],
      "payable": false,
      "stateMutability": "view",
      "type": "function"
    },
    {
      "constant": true,
      "inputs": [
        {
          "name": "",
          "type": "uint256"
        }
      ],
      "name": "voteCommits",
      "outputs": [
        {
          "name": "",
          "type": "bytes32"
        }
      ],
      "payable": false,
      "stateMutability": "view",
      "type": "function"
    },
    {
      "inputs": [
        {
          "name": "_commitPhaseLengthInSeconds",
          "type": "uint256"
        },
        {
          "name": "_choice1",
          "type": "string"
        },
        {
          "name": "_choice2",
          "type": "string"
        }
      ],
      "payable": false,
      "stateMutability": "nonpayable",
      "type": "constructor"
    },
    {
      "anonymous": false,
      "inputs": [
        {
          "indexed": false,
          "name": "",
          "type": "string"
        }
      ],
      "name": "logString",
      "type": "event"
    },
    {
      "anonymous": false,
      "inputs": [
        {
          "indexed": false,
          "name": "",
          "type": "string"
        },
        {
          "indexed": false,
          "name": "",
          "type": "bytes32"
        }
      ],
      "name": "newVoteCommit",
      "type": "event"
    },
    {
      "anonymous": false,
      "inputs": [
        {
          "indexed": false,
          "name": "",
          "type": "string"
        },
        {
          "indexed": false,
          "name": "",
          "type": "string"
        }
      ],
      "name": "voteWinner",
      "type": "event"
    },
    {
      "constant": false,
      "inputs": [
        {
          "name": "_voteCommit",
          "type": "bytes32"
        }
      ],
      "name": "commitVote",
      "outputs": [],
      "payable": false,
      "stateMutability": "nonpayable",
      "type": "function"
    },
    {
      "constant": false,
      "inputs": [
        {
          "name": "_vote",
          "type": "string"
        },
        {
          "name": "_voteCommit",
          "type": "bytes32"
        }
      ],
      "name": "revealVote",
      "outputs": [],
      "payable": false,
      "stateMutability": "nonpayable",
      "type": "function"
    },
    {
      "constant": true,
      "inputs": [],
      "name": "getWinner",
      "outputs": [
        {
          "name": "",
          "type": "string"
        }
      ],
      "payable": false,
      "stateMutability": "view",
      "type": "function"
    }
  ],
  "bytecode": "0x6060604052600060055534156200001557600080fd5b6040516200152a3803806200152a8339810160405280805190602001909190805182019190602001805182019190505060148310156200005457600080fd5b6001830242016004819055508160009080519060200190620000789291906200009b565b508060019080519060200190620000919291906200009b565b505050506200014a565b828054600181600116156101000203166002900490600052602060002090601f016020900481019282601f10620000de57805160ff19168380011785556200010f565b828001600101855582156200010f579182015b828111156200010e578251825591602001919060010190620000f1565b5b5090506200011e919062000122565b5090565b6200014791905b808211156200014357600081600090555060010162000129565b5090565b90565b6113d0806200015a6000396000f3006060604052600436106100a4576000357c0100000000000000000000000000000000000000000000000000000000900463ffffffff168063031b6dbf146100a95780630bbfc206146100d257806322ce9bac1461013c5780633e8589231461016557806349e811c51461018c57806387cfa5bf1461021a5780638e7ea5b2146102a8578063a619350414610336578063baa13bb51461035f578063bf9d069814610388575b600080fd5b34156100b457600080fd5b6100bc6103c7565b6040518082815260200191505060405180910390f35b34156100dd57600080fd5b61013a600480803590602001908201803590602001908080601f01602080910402602001604051908101604052809392919081815260200183838082843782019150505050505091908035600019169060200190919050506103cd565b005b341561014757600080fd5b61014f610ab4565b6040518082815260200191505060405180910390f35b341561017057600080fd5b61018a600480803560001916906020019091905050610aba565b005b341561019757600080fd5b61019f610cdf565b6040518080602001828103825283818151815260200191508051906020019080838360005b838110156101df5780820151818401526020810190506101c4565b50505050905090810190601f16801561020c5780820380516001836020036101000a031916815260200191505b509250505060405180910390f35b341561022557600080fd5b61022d610d7d565b6040518080602001828103825283818151815260200191508051906020019080838360005b8381101561026d578082015181840152602081019050610252565b50505050905090810190601f16801561029a5780820380516001836020036101000a031916815260200191505b509250505060405180910390f35b34156102b357600080fd5b6102bb610e1b565b6040518080602001828103825283818151815260200191508051906020019080838360005b838110156102fb5780820151818401526020810190506102e0565b50505050905090810190601f1680156103285780820380516001836020036101000a031916815260200191505b509250505060405180910390f35b341561034157600080fd5b610349611256565b6040518082815260200191505060405180910390f35b341561036a57600080fd5b61037261125c565b6040518082815260200191505060405180910390f35b341561039357600080fd5b6103a96004808035906020019091905050611262565b60405180826000191660001916815260200191505060405180910390f35b60035481565b6103d5611286565b6103dd611286565b6004544210156103ec57600080fd5b6007600084600019166000191681526020019081526020016000208054600181600116156101000203166002900480601f01602080910402602001604051908101604052809291908181526020018280546001816001161561010002031660029004801561049b5780601f106104705761010080835404028352916020019161049b565b820191906000526020600020905b81548152906001019060200180831161047e57829003601f168201915b5050505050915060008251141561053f577f0bb563d6789cea5d754d1b7f85bfebdfe7a1a86e2e0ffccfb8a6bbdb07826ae26040518080602001828103825260288152602001807f4120766f74652077697468207468697320766f7465436f6d6d6974207761732081526020017f6e6f74206361737400000000000000000000000000000000000000000000000081525060400191505060405180910390a1610651565b7f430000000000000000000000000000000000000000000000000000000000000082600081518110151561056f57fe5b9060200101517f010000000000000000000000000000000000000000000000000000000000000090047f0100000000000000000000000000000000000000000000000000000000000000027effffffffffffffffffffffffffffffffffffffffffffffffffffffffffffff1916141515610650577f0bb563d6789cea5d754d1b7f85bfebdfe7a1a86e2e0ffccfb8a6bbdb07826ae260405180806020018281038252601a8152602001807f5468697320766f74652077617320616c7265616479206361737400000000000081525060200191505060405180910390a1610aae565b5b836040518082805190602001908083835b6020831015156106875780518252602082019150602081019050602083039250610662565b6001836020036101000a0380198251168184511680821785525050505050509050019150506040518091039020600019168360001916141515610757577f0bb563d6789cea5d754d1b7f85bfebdfe7a1a86e2e0ffccfb8a6bbdb07826ae26040518080602001828103825260248152602001807f566f7465206861736820646f6573206e6f74206d6174636820766f746520636f81526020017f6d6d69740000000000000000000000000000000000000000000000000000000081525060400191505060405180910390a1610aae565b8390507f310000000000000000000000000000000000000000000000000000000000000081600081518110151561078a57fe5b9060200101517f010000000000000000000000000000000000000000000000000000000000000090047f0100000000000000000000000000000000000000000000000000000000000000027effffffffffffffffffffffffffffffffffffffffffffffffffffffffffffff19161415610876576001600254016002819055507f0bb563d6789cea5d754d1b7f85bfebdfe7a1a86e2e0ffccfb8a6bbdb07826ae260405180806020018281038252601a8152602001807f566f746520666f722063686f696365203120636f756e7465642e00000000000081525060200191505060405180910390a1610a48565b7f32000000000000000000000000000000000000000000000000000000000000008160008151811015156108a657fe5b9060200101517f010000000000000000000000000000000000000000000000000000000000000090047f0100000000000000000000000000000000000000000000000000000000000000027effffffffffffffffffffffffffffffffffffffffffffffffffffffffffffff19161415610992576001600354016003819055507f0bb563d6789cea5d754d1b7f85bfebdfe7a1a86e2e0ffccfb8a6bbdb07826ae260405180806020018281038252601a8152602001807f566f746520666f722063686f696365203220636f756e7465642e00000000000081525060200191505060405180910390a1610a47565b7f0bb563d6789cea5d754d1b7f85bfebdfe7a1a86e2e0ffccfb8a6bbdb07826ae260405180806020018281038252604c8152602001807f566f746520636f756c64206e6f7420626520726561642120566f746573206d7581526020017f737420737461727420776974682074686520415343494920636861726163746581526020017f7220603160206f7220603260000000000000000000000000000000000000000081525060600191505060405180910390a15b5b6040805190810160405280600881526020017f52657665616c65640000000000000000000000000000000000000000000000008152506007600085600019166000191681526020019081526020016000209080519060200190610aac92919061129a565b505b50505050565b60055481565b610ac2611286565b600454421115610ad157600080fd5b6007600083600019166000191681526020019081526020016000208054600181600116156101000203166002900480601f016020809104026020016040519081016040528092919081815260200182805460018160011615610100020316600290048015610b805780601f10610b5557610100808354040283529160200191610b80565b820191906000526020600020905b815481529060010190602001808311610b6357829003601f168201915b5050505050905060008151141515610b9757600080fd5b60068054806001018281610bab919061131a565b9160005260206000209001600084909190915090600019169055506040805190810160405280600981526020017f436f6d6d697474656400000000000000000000000000000000000000000000008152506007600084600019166000191681526020019081526020016000209080519060200190610c2a92919061129a565b506005600081548092919060010191905055507f651840caa1b0e1c52ec1324c2c0aca317ef17e709f0016630d8739f84c0f3f368260405180806020018360001916600019168152602001828103825260278152602001807f566f746520636f6d6d697474656420776974682074686520666f6c6c6f77696e81526020017f6720686173683a000000000000000000000000000000000000000000000000008152506040019250505060405180910390a15050565b60008054600181600116156101000203166002900480601f016020809104026020016040519081016040528092919081815260200182805460018160011615610100020316600290048015610d755780601f10610d4a57610100808354040283529160200191610d75565b820191906000526020600020905b815481529060010190602001808311610d5857829003601f168201915b505050505081565b60018054600181600116156101000203166002900480601f016020809104026020016040519081016040528092919081815260200182805460018160011615610100020316600290048015610e135780601f10610de857610100808354040283529160200191610e13565b820191906000526020600020905b815481529060010190602001808311610df657829003601f168201915b505050505081565b610e23611346565b600454421015610e3257600080fd5b60068054905060035460025401141515610e4b57600080fd5b6003546002541115610fec577fcc195fb57a2597148f15fecade38a000847ff770596f679a4b83fe923007520b60006040518080602001806020018381038352601e8152602001807f416e64207468652077696e6e6572206f662074686520766f74652069733a0000815250602001838103825284818154600181600116156101000203166002900481526020019150805460018160011615610100020316600290048015610f3b5780601f10610f1057610100808354040283529160200191610f3b565b820191906000526020600020905b815481529060010190602001808311610f1e57829003601f168201915b5050935050505060405180910390a160008054600181600116156101000203166002900480601f016020809104026020016040519081016040528092919081815260200182805460018160011615610100020316600290048015610fe05780601f10610fb557610100808354040283529160200191610fe0565b820191906000526020600020905b815481529060010190602001808311610fc357829003601f168201915b50505050509050611253565b600254600354111561118d577fcc195fb57a2597148f15fecade38a000847ff770596f679a4b83fe923007520b60016040518080602001806020018381038352601e8152602001807f416e64207468652077696e6e6572206f662074686520766f74652069733a00008152506020018381038252848181546001816001161561010002031660029004815260200191508054600181600116156101000203166002900480156110dc5780601f106110b1576101008083540402835291602001916110dc565b820191906000526020600020905b8154815290600101906020018083116110bf57829003601f168201915b5050935050505060405180910390a160018054600181600116156101000203166002900480601f0160208091040260200160405190810160405280929190818152602001828054600181600116156101000203166002900480156111815780601f1061115657610100808354040283529160200191611181565b820191906000526020600020905b81548152906001019060200180831161116457829003601f168201915b50505050509050611253565b6003546002541415611252577fcc195fb57a2597148f15fecade38a000847ff770596f679a4b83fe923007520b604051808060200180602001838103835260188152602001807f54686520766f746520656e64656420696e2061207469652100000000000000008152506020018381038252600081526020016020019250505060405180910390a16040805190810160405280600d81526020017f49742077617320612074696521000000000000000000000000000000000000008152509050611253565b5b90565b60045481565b60025481565b60068181548110151561127157fe5b90600052602060002090016000915090505481565b602060405190810160405280600081525090565b828054600181600116156101000203166002900490600052602060002090601f016020900481019282601f106112db57805160ff1916838001178555611309565b82800160010185558215611309579182015b828111156113085782518255916020019190600101906112ed565b5b509050611316919061135a565b5090565b81548183558181151161134157818360005260206000209182019101611340919061137f565b5b505050565b602060405190810160405280600081525090565b61137c91905b80821115611378576000816000905550600101611360565b5090565b90565b6113a191905b8082111561139d576000816000905550600101611385565b5090565b905600a165627a7a723058204b423c2f97ab347969541555271ee657eec8a13501be5b7d0008ab688583728c0029",
  "source": "pragma solidity ^0.4.19;\r\n\r\ncontract CommitReveal {\r\n    // The two choices for your vote\r\n    string public choice1;\r\n    string public choice2;\r\n    \r\n    // Information about the current status of the vote\r\n    uint public votesForChoice1;\r\n    uint public votesForChoice2;\r\n    uint public commitPhaseEndTime;\r\n    uint public numberOfVotesCast = 0;\r\n\r\n    // The actual votes and vote commits\r\n    bytes32[] public voteCommits;\r\n    mapping(bytes32 => string) voteStatuses; // Either `Committed` or `Revealed`\r\n    \r\n    // Events used to log what's going on in the contract\r\n    event logString(string);\r\n    event newVoteCommit(string, bytes32);\r\n    event voteWinner(string, string);\r\n    \r\n    // Constructor used to set parameters for the this specific vote\r\n    function CommitReveal(uint _commitPhaseLengthInSeconds, \r\n                                  string _choice1, \r\n                                  string _choice2) {\r\n        if (_commitPhaseLengthInSeconds < 20) {\r\n            throw;\r\n        }\r\n        commitPhaseEndTime = now + _commitPhaseLengthInSeconds * 1 seconds;\r\n        choice1 = _choice1;\r\n        choice2 = _choice2;\r\n    }\r\n    \r\n    function commitVote(bytes32 _voteCommit) {\r\n        if (now > commitPhaseEndTime) throw; // Only allow commits during committing period\r\n        \r\n        // Check if this commit has been used before\r\n        bytes memory bytesVoteCommit = bytes(voteStatuses[_voteCommit]);\r\n        if (bytesVoteCommit.length != 0) throw;\r\n        \r\n        // We are still in the committing period & the commit is new so add it\r\n        voteCommits.push(_voteCommit);\r\n        voteStatuses[_voteCommit] = \"Committed\";\r\n        numberOfVotesCast ++;\r\n        newVoteCommit(\"Vote committed with the following hash:\", _voteCommit);\r\n    }\r\n    \r\n    function revealVote(string _vote, bytes32 _voteCommit) {\r\n        if (now < commitPhaseEndTime) throw; // Only reveal votes after committing period is over\r\n        \r\n        // FIRST: Verify the vote & commit is valid\r\n        bytes memory bytesVoteStatus = bytes(voteStatuses[_voteCommit]);\r\n        if (bytesVoteStatus.length == 0) {\r\n            logString('A vote with this voteCommit was not cast');\r\n        } else if (bytesVoteStatus[0] != 'C') {\r\n            logString('This vote was already cast');\r\n            return;\r\n        }\r\n        \r\n        if (_voteCommit != keccak256(_vote)) {\r\n            logString('Vote hash does not match vote commit');\r\n            return;\r\n        }\r\n        \r\n        // NEXT: Count the vote!\r\n        bytes memory bytesVote = bytes(_vote);\r\n        if (bytesVote[0] == '1') {\r\n            votesForChoice1 = votesForChoice1 + 1;\r\n            logString('Vote for choice 1 counted.');\r\n        } else if (bytesVote[0] == '2') {\r\n            votesForChoice2 = votesForChoice2 + 1;\r\n            logString('Vote for choice 2 counted.');\r\n        } else {\r\n            logString('Vote could not be read! Votes must start with the ASCII character `1` or `2`');\r\n        }\r\n        voteStatuses[_voteCommit] = \"Revealed\";\r\n    }\r\n    \r\n    function getWinner () constant returns(string) {\r\n        // Only get winner after all vote commits are in\r\n        if (now < commitPhaseEndTime) throw;\r\n        // Make sure all the votes have been counted\r\n        if (votesForChoice1 + votesForChoice2 != voteCommits.length) throw;\r\n        \r\n        if (votesForChoice1 > votesForChoice2) {\r\n            voteWinner(\"And the winner of the vote is:\", choice1);\r\n            return choice1;\r\n        } else if (votesForChoice2 > votesForChoice1) {\r\n            voteWinner(\"And the winner of the vote is:\", choice2);\r\n            return choice2;\r\n        } else if (votesForChoice1 == votesForChoice2) {\r\n            voteWinner(\"The vote ended in a tie!\", \"\");\r\n            return \"It was a tie!\";\r\n        }\r\n    }\r\n}",
  "sourcePath": "C:\\Users\\Jeremy\\dev\\cryptoduel\\contracts\\CommitReveal.sol",
  "compiler": {
    "name": "solc",
    "version": "0.4.19+commit.c4cbbb05.Emscripten.clang"
  },
  "schemaVersion": "1.0.1",
  "updatedAt": "2018-02-10T07:53:07.070Z"
}