{
  "contractName": "Recorder",
  "abi": [
    {
      "anonymous": false,
      "inputs": [
        {
          "indexed": false,
          "name": "_from",
          "type": "address"
        },
        {
          "indexed": false,
          "name": "_message",
          "type": "string"
        }
      ],
      "name": "Record",
      "type": "event"
    },
    {
      "constant": false,
      "inputs": [
        {
          "name": "message",
          "type": "string"
        }
      ],
      "name": "record",
      "outputs": [],
      "payable": false,
      "stateMutability": "nonpayable",
      "type": "function"
    }
  ],
  "bytecode": "0x6060604052341561000f57600080fd5b6101a28061001e6000396000f300606060405260043610610041576000357c0100000000000000000000000000000000000000000000000000000000900463ffffffff168063e51ace1614610046575b600080fd5b341561005157600080fd5b6100a1600480803590602001908201803590602001908080601f016020809104026020016040519081016040528093929190818152602001838380828437820191505050505050919050506100a3565b005b7fac0fdae5d3299ac82cf049834f149484c5cafb1584ffd1e2432597e4581b16a73382604051808373ffffffffffffffffffffffffffffffffffffffff1673ffffffffffffffffffffffffffffffffffffffff16815260200180602001828103825283818151815260200191508051906020019080838360005b8381101561013857808201518184015260208101905061011d565b50505050905090810190601f1680156101655780820380516001836020036101000a031916815260200191505b50935050505060405180910390a1505600a165627a7a7230582070a1c2b1ee085fc0bc159a34723eecd6faa9da537155b7954291c85f9a6b86600029",
  "source": "pragma solidity 0.4.19;\r\n\r\n/**\r\n * @title Recorder — record a message into the blockchain\r\n */\r\n\r\ncontract Recorder {\r\n  event Record(\r\n    address _from,\r\n    string _message\r\n  );\r\n  \r\n  /**\r\n   * @notice Sends the contract a message\r\n   * to record into the blockchain\r\n   * @param message  message to record\r\n   */\r\n  function record(string message) {\r\n    Record(msg.sender, message);\r\n  }\r\n}",
  "sourcePath": "C:\\Users\\Jeremy\\dev\\cryptoduel\\contracts\\Recorder.sol",
  "compiler": {
    "name": "solc",
    "version": "0.4.19+commit.c4cbbb05.Emscripten.clang"
  },
  "schemaVersion": "1.0.1",
  "updatedAt": "2018-02-12T01:26:11.750Z"
}